:020000021000EC
:040000006F204047E6
:100004000000000000000000900000207A0300209F
:10001400A9BDF9F5940000200000000000000000D4
:10002400960000209800002000000000000000005E
:100034009A000020000000009C0000200000000046
:100044009E0000207E070020A6070020A4000020B8
:10005400A6000020A8000020F6030020AC00002029
:10006400AE000020B0000020B2000020B400002048
:1000740060070020B8000020AA070020BC00002070
:10008400BE000020C0000020C2000020C4000020E8
:1000940001A001A001A001A001A001A001A001A054
:1000A40001A001A001A001A001A001A001A001A044
:1000B40001A001A001A001A001A001A001A001A034
:1000C40001A001A001A041118146014681451145CD
:1000D40006C6EF008079B727004011472383E780E5
:1000E400B7F700E0938707D0984B6D9B98CB984B5C
:1000F4005D9B98CB7300501001000100B240410198
:1001040082804111814681450146114506C6B12FC1
:10011400B727004011472383E780B717004003C780
:10012400E70283C5E70483D6870391671377F70F44
:1001340093E5350063E5F600719B13671700B71765
:100144000040130670052380C704930680FA2380B9
:10015400D70401000100238207022380C7042380FF
:10016400D704010001002387E7022387B704238013
:10017400C7042380D7040100010003C7B704136731
:100184000702A385E70437F700E023800704130779
:1001940007D00C4B93E545000CCB0C4BDD990CCBF5
:1001A40073005010010001002380C7042380D7048A
:1001B4000100010003C7B7041377F70DA385E70413
:1001C40023800704B24041018280B71700409306A0
:1001D40070052380D704130780FA2380E704010005
:1001E400010003C6B7041376F60DA385C704238064
:1001F4000704137605024DC203C6A700118A1DE247
:100204002380D7042380E7040100010003C7A7006B
:10021400136747002385E7009307004B01000100A3
:10022400FD17EDFFB7170040930670052380D70430
:10023400130780FA2380E704010001007D892394D9
:10024400A7000100010001000100238007042380AE
:10025400D7042380E70401000100010001003727CF
:10026400004093061005A303D78023800704B71723
:100274000040130770052380E704130780FA2380E6
:10028400E7040100010003C7B70413670708A38547
:10029400E7042380070482801376050441C603C65D
:1002A400A700418A1DE22380D7042380E7040100CC
:1002B400010003C7A700136707012385E70093071D
:1002C400007D01000100FD17EDFFB7170040930604
:1002D40070052380D704130780FA2380E704010004
:1002E40001001376F501136606042394C700010088
:1002F400010001000100238007042380D7041306B2
:1003040060042380E7046318C50001000100372757
:100314000040894689BF0100010037270040930649
:10032400200591B72380D7042380E704010001004E
:1003340003D787001367070C2394E7000DBF41110F
:10034400814601468145114506C60523B71700407D
:10035400130770052380E704130780FA2380E7045A
:100364000100010003C76704136717002383E70430
:1003740023800704B24041018280814601468145C1
:100384001145E521B7170040930670052380D70473
:10039400130780FA2380E704010001007D562396A9
:1003A400C7022380D7042380E7040100010003C7A8
:1003B4006704136717002383E7042380070401A05D
:1003C400BD473305F50201007D1575FD828041119D
:1003D40022C426C206C6AA84014463179400B2400C
:1003E400224492444101828005041305803E420464
:1003F400C13F4180DDB77971A307010022D626D41D
:100404004AD24ED052CE378400408347640093F7DB
:10041400F70FA307F1008347F100898B6381072E4F
:10042400834774001307000393F70703638EE706FB
:100434008344740083477400BD8893F7070363897A
:10044400071C13070002639CE704138981FE639869
:1004540004108347490F9D83F1C78347240293C740
:1004640007042301F4028347240293F7C70F93E799
:1004740027002301F4020327490183454900832708
:10048400890163FAE5080D8FBE95232AE900232C20
:10049400B90013050008977001E0E780A093B787BF
:1004A400004009472383E7003784004083477400F2
:1004B400E207E18763D90728930720FC2301F402AC
:1004C400938481FE83A5040821461385C10D9720DA
:1004D40001E0E78080058387440F63CA0700230097
:1004E40004028347240293F7C70F2301F4023784DD
:1004F4000040834724021385C10D93F7370F93E718
:1005040087002301F402976001E0E780007D8947BA
:100514002303F4000DACB305F700232CB90023AE7C
:1005240001FE85BF0347590F9547631BF700034737
:1005340034008347090013770708D98FA301F40017
:100544008347240293F7C70F93E727002301F4029C
:100554008347240293F7370F2301F40289B79147A5
:100564006398F4008347240393C707042309F40220
:10057400154433D48402930700033304F40293979D
:1005840024003E94B7870040938727023E94834714
:10059400040093F7C70F93E727002300F400E14713
:1005A400B387F402CA97D84B03C64700944F6379C4
:1005B400E6048C4B118FB296B2958CCBD8CB94CFEA
:1005C40088476376E602972001E0E78000F6E1477A
:1005D400B387F402CA9703C757008547630BF70034
:1005E4008347040093F7C70F2300F4004DBD3A86F8
:1005F400D9BF8347040093F7C70F93E71700EDB7FC
:10060400B305D7008CCF23AA070013E5040861B50E
:10061400A9E083472402938481060349840093C795
:1006240007082301F4028C4088444A86972001E09D
:10063400E780A0EF8C48DC440145CA95B387274185
:100644008CC8DCC4976001E0E780407AE31909E4D0
:1006540001B78347740093F70704E38207E49147E3
:100664006398F4008347240393C707082309F4021B
:10067400E147B387F402138981FE378A0040834936
:100684008A004E863E99130409080C4008449720BA
:1006940001E0E78080E91C440C480347C907CE9772
:1006A4001CC45C44CE950CC8B38737415CC463E377
:1006B400E90099E72685976001E0E7802073C5B3D8
:1006C4009547B3D7F402130700038346D9078A0476
:1006D400130A2A02B387E7020547A697D2976389CC
:1006E400E60003C707001377370F2380E70045BBF5
:1006F40003C707001377370F13674700FDB7834716
:10070400F100858B99CFA3010400976001E0E78095
:1007140060598347240293F7370F2301F402854776
:10072400C5BB8347F100918B9DC783475400918BD0
:1007340091C7014597A001E0E78020AAB787004050
:1007440011472383E7003254A25412598259724A42
:100754004561730020308347F10093F7F70F4DBBD9
:10076400B7170040130700032388E702854723AE29
:10077400F1D873002030411106C64525FDBF83C75B
:10078400018693F7070481CB83A5C185054597802E
:1007940001E0E780A0A303D781D7B7170040239EC9
:1007A400E7087300203073002030730020302303E7
:1007B400048015472303E48001002302A48082807F
:1007C40083076480E3CE07FE2303048082808307CB
:1007D4006480E3CE07FE03454480828083076480FF
:1007E400E3CE07FE2302A4808280411126C44AC2BC
:1007F4004EC006C61377F50BAD47AA892E899544DA
:100804006306F70019456537653F8D444E854537C6
:10081400FD59FD1463983401B240A244124982493F
:1008240041018280135509011375F50F453F2209D3
:10083400CDB7011126CC06CEB704080051371545B3
:10084400BD37713769372AC6A53F324593771500FE
:1008540089EB136515001375F50FF240E244056149
:100864008280FD14E9FC0145CDBF397126DC4ADAEA
:100874004ED852D656D45AD25ED006DE62CE66CC5C
:10088400B7E700E07D5783AA070022C603AA470002
:1008940023A0E71823A2E718B71700401307700531
:1008A4002380E704130780FA2380E70483C74704FF
:1008B400930B75FFB684E20793FBFB0F8546AA8969
:1008C4002E8B328937240040E187015763FA760181
:1008D4006308D5008946130700026313D500015746
:1008E400D98F93F7F70FB71C00402382FC041147FC
:1008F4002303E4801305F00F5D3D094CD135636D8E
:100904007C11B7050700DA9537870700795563F23C
:10091400E504B3879500636EF702370B0800A94717
:1009240033EB65016399F90689E48144513D2685D9
:100934000DA0DA850945553D05090345F9FFFD1468
:10094400050B693D81C49377FB0FFDF7DD3569FD28
:100954007D55B7170040130770052380E70413077C
:1009640080FA2380E70403C74704418B2382E7040A
:10097400F250B7E700E023A0571123A24711E25435
:1009840032445259C259325AA25A125B825B724C97
:10099400E24C21618280A5476395F90685691309B4
:1009A400F00FB3069900B3742B01B6941349F9FF01
:1009B400B3749900856B33796901416B9387F9FFAF
:1009C400B3F7270199E363FC340193D94900C14784
:1009D400E3E637FF99BF0569C1697D19D9B71305E6
:1009E400800D63886901130500026384790113058E
:1009F4001008CA85DD3B353D21DD4E99B384344171
:100A0400D9B7DA852D45D533CA94E30099F205099F
:100A14007D3BA30FA9FED5BF9387F9FF93F7F70F8B
:100A24006361FC0C83C71C0413073008631FF704BD
:100A340037070800636BEB04B3079B00B70610008D
:100A440063F5D704334BEB0089476393F906898038
:100A5400D549E38C04ECDA850945413B11090327A8
:100A6400C9FF91472320E48003076480E34E07FE17
:100A740023033481FD17EDFBFD14110B81C493771F
:100A8400FB0FE9FF7D3371F5E1B5B717004003C7EC
:100A94005704B70708001377070219E3B78707005D
:100AA4007955E378FBEA33079B00E3FFE7F855B594
:100AB4008547E382F9F2DA852D45053B9389F4FFF6
:100AC400E38504E6293393F7390091EB8326048008
:100AD4000327090093074900E39AE6E43E89CE849C
:100AE400F1BFB5476396F9001305900BC93135BDC5
:100AF400B1471305B00AE38BF9FE99476391F904F2
:100B0400B7050800B365BB002D45C53181448D4B45
:100B1400A149753963967401832704802320F90061
:100B24008504E39834FF8327048013172B0163554E
:100B340007002312F900D5BB2322F900FDB39D471A
:100B44006399F90281451305B0044531BD4423205E
:100B5400090023220900FD599D3993F77400CA97AF
:100B640003C70700FD14398D2380A700E39634FFE3
:100B74006DBBA1476392F9046D398144630D0B0089
:100B84008D479304C0036308FB00930400056304CA
:100B94008B01930440041375C507E30895D81945E0
:100BA400393139390545213126850D3909453D311C
:100BB4004931E31C05D669BB91476399F9001305D4
:100BC4006006F536F53E130590090DB7E38F09D499
:100BD400F154A9BB19CD91CD09CE81473387F500D6
:100BE400834607003307F50085072300D700E31782
:100BF400F6FE828019C991C909CA910583A7C5FF68
:100C040011057D16232EF5FEC5BF828001C919C6C4
:100C14002A960505A30FB5FEE31DA6FE8280814733
:100C24003307F5000307070019E33E858280850733
:100C3400C5BF01112E8626CAAA8413150601930581
:100C4400F004418122CC06CE32C6EF1040592A84EA
:100C540001C53246A685BD3F2285F2406244D24496
:100C640005618280854715C18DC105C28147B306E0
:100C7400F5003387F50083C6060003470700639831
:100C8400E6008507E315F6FE85473E8582808147A9
:100C9400EDBF9307F6FFBE952A966313C5008280C5
:100CA400FD1583C715000505A30FF5FEFDB7AA873B
:100CB400014581CF09CE3E96850703C7F7FF631729
:100CC400B700E39BC7FE0545828082800145828090
:100CD4007971974700009387A75A22D4804306D698
:100CE40026D24AD04ECE52CC56CA5AC85EC662C428
:100CF4005DCC37C9C901814B174A0000130ACA5C8D
:100D040097440000938404581309F937974A000064
:100D1400938ACA51B709C0A8370B40578357240098
:100D240095E35C44639D0B0017470000232AF754A6
:100D3400032CC4002285EF10A057628499A823A62F
:100D4400FB00FDB783270A008297838664011C4455
:100D540063DB06063307F5406367E908974700003D
:100D640023AE074C835524000345040097B001E0EB
:100D7400E78060C55C405844A9CF1444B697838685
:100D8400640163C5060063E33701DA971CC4A28BD0
:100D94003A8449F497470000938747499C4B094795
:100DA4006378F706F917174700002329F748B2506C
:100DB400225492540259F249624AD24A424BB24BEB
:100DC400224C45618280E377F5F83387F9402A970E
:100DD40061B763970B009747000023A3E74A89BFD5
:100DE40023A6EB00B1B7D85009CF63DF06003385E3
:100DF400A74083A70A016376F5009747000023AF55
:100E0400A742A28B404471B7E3F3A7FECE97C5B7C0
:100E14009747000023A4074259BF411122C4174435
:100E240000001304A4431C4006C626C24AC091C74E
:100E340082979747000023A307425C4091C382979F
:100E44001C406391071C9747000083C7B75F858BDD
:100E54009DC797470000A387075E17470000034715
:100E6400975E954763FDE700EF0010379747000052
:100E740083C7775DF5178A07A2979C438297174922
:100E840000001309E95F8347C900918B99C3EF10F0
:100E940060281C4491C38297974400009384043EC5
:100EA400984017460000034676389747000083C7EA
:100EB400E73793961700BA9683D60600D5CA9747A4
:100EC400000083C7A73663EFC70A97470000238F44
:100ED40007341C40639807129747000083C7D7560E
:100EE40091CF9747000083C7175689EB97470000B7
:100EF400A38C0754970003E0E780203A974700004B
:100F04009387873C9C43638F070EB707C0A8174796
:100F140000002325F7326D3B9747000093878736FF
:100F2400DC53EDC31747000013074730184B9747AE
:100F3400000083C777366367F70C17470000034741
:100F44009750954763E0E70C8347C900918BDDEB2D
:100F540090409746000083C6762D63CBD70A22447F
:100F6400B24092440249410117B301E06700C382D1
:100F7400850793F7F70F974600002389F62AE3E6DF
:100F8400C7F235BF86073E97835507002310070035
:100F9400974700002392072E974700009387C72B9B
:100FA4009C43174500000345652813172500BA978D
:100FB4009C4382979747000083D7072C174700006C
:100FC4000347C72693C7F7FF7D8D931717009840F3
:100FD4003E97835707005D8D2310A70097470000B5
:100FE40083C7C72491C78507174700002300F72448
:100FF40017470000034787239747000083C7172339
:10100400E375F7ECB24022449244024941018280E4
:10101400139717003297035707006DF7850735BFFD
:10102400AD6737C70040BD072326F7200F10000027
:10103400974700009387871FC84F83278726BD667D
:10104400BD0693C7F7FF99836A052326D7205D8DD4
:1010540082804111B7170040985F3AC6945F3247C7
:10106400E39CE6FE3245410182808280032785119C
:1010740063000712411122C406C68347C500834595
:10108400C5042A8493F7C70F2306F5008346970007
:101094000356C70013958601618563F1C508635A39
:1010A40005060345870093F6F607A304D700054613
:1010B40093E627006314C50093E617002306D400C3
:1010C4005C4389075CC3A30AB400032504112E867C
:1010D4004C43090501368327841103465401D44344
:1010E40003D7C700B296118FD4C32396E70089476C
:1010F400A30DF400034744039747000083C7A719CF
:101104006378F7048347C40093E707012306F400D8
:1011140081A093E717002306F40075B79376F60FC2
:10112400635D050203458700854513E627006314C4
:10113400B50013E617002306C400A30AD400A304D1
:1011440007008547A30DF400832784119C43DDF336
:10115400B240224401454101828093E717002306EF
:10116400F400A30AD400A3040700032504114C438C
:1011740009058D348327841103465401D44303D7CE
:10118400C700B296118FD4C32396E7008D475DBF85
:101194000545828097470000938707299C434111A6
:1011A40022C406C6858B2A84C5EF4165130525F53F
:1011B40097A002E0E780C02145C58347A500231519
:1011C400F50083270412BDE72320A4122322A412CE
:1011D40085472310F4042320050083476401544108
:1011E4002316F5000347D4002304E5000547A304B0
:1011F400E500174700001307A724184F13851702AB
:1012040015811C437D151375F50F9CC25C43DCC22C
:101214001C479CC65C47DCC61C4B9CCA5C4BDCCAA6
:101224001C4F9CCE5C4FDCCE19CD9386060213076F
:101234000702C1BF8327441288C3835704042322AF
:10124400A412850779B79747000083D7A72C850791
:10125400174700002310F72CB2402244410182803A
:101264008347C40023090400054593C747002306A8
:10127400F400DDB78347850193F7E70FD5EF834784
:101284009501DDEB034625018346C50009CA834564
:101294004503174700000347170063E7E50013F70A
:1012A400060141CF014709C6C18A0357651C81C69F
:1012B4008356A51C369751C31307C7121745000060
:1012C400035545F9B335A70237460F0041111306FC
:1012D4000624814622C426C206C67D543305A702CD
:1012E40097B003E0E780002F9747000083C717FB00
:1012F400B384A700974700009387472103A70709F2
:101304008327070963F387003E84184375FB9747D7
:101314000000938767FB9C43829781476364A40022
:10132400B307A440B2402244B3B7970093C7170051
:1013340092443E854101828081473E858280797155
:1013440026D206D622D44AD04ECE52CC56CA5AC839
:101354005EC68347350303447513AA843E9413740D
:10136400F40F9307400263F687001304B4FD13746B
:10137400F40F03AA841383AAC413A38B84122286B2
:101384005285D68597B003E0E7800020058915E5EE
:1013940003CBD41201498149337B6403930B50027C
:1013A4004A865285D68597B003E0E780E01D05891B
:1013B40015C5639169031374F90F238B8412B2501A
:1013C400225492540259F249624AD24A424BB24BD5
:1013D400456182808509E20993D989410509E311B0
:1013E40079FDE1BF832785090356E503797193D617
:1013F4000701BD8EC206C182358E135776409357BE
:101404005640898B058B5D8F93573640918B5D8F4A
:1014140093571640A18B5D8F93171600C18B5D8F78
:101424009317360093F707025D8F93175600935571
:10143400860093F707041E065D8F1376F60F518F0F
:1014440093D7554013D63540118A898BD18F13D643
:101454007540D18F13D61540218AD18F139615006C
:10146400418AD18F1396350013760602D18F1396D5
:101474005500137606049E05D18F93F5F50FCD8F95
:10148400A20745465D8F3307C70222D42A8426D299
:1014940052CC56CA032A8413832AC4135AC806D6C4
:1014A400369742074183935777401355574009892C
:1014B400858BC98F135537401189C98F1355174030
:1014C4002189C98F131517004189C98F1315370056
:1014D40013750502C98F13155700935587001375AB
:1014E40005041E07C98F1377F70FD98F13D535401D
:1014F40013D755401189098B498F13D57540498FEE
:1015040013D515402189498F139515004189498FB9
:101514001395350013750502498F139555001375FE
:1015240005049E05498F93F5F50F4D8F2207D98F3A
:10153400B387C7024AD04ECE5EC662C4B697C2070E
:10154400C18313D7774013D557400989058B498F39
:1015540013D537401189498F13D517402189498FF5
:10156400139517004189498F1395370013750502A8
:10157400498F1395570093D58700137505049E076B
:10158400498F93F7F70FD98F13D5354013D75540AB
:101594001189098B498F13D57540498F13D515408F
:1015A4002189498F139515004189498F1395350079
:1015B40013750502498F13955500137505049E058F
:1015C400498F93F5F50F4D8F2207D98FB387C70243
:1015D400130650025285D685B697BD8E93940601A4
:1015E400C18033F6C402137BF60F97B003E0E780A3
:1015F400A0F905890DED8347D41201498149B384CB
:101604009702130C5002C1804A865285D68597B042
:1016140003E0E78060F70589937BF90F11C56386C2
:101624003403850993F9F90F0509E31F89FD230B99
:101634006413B250225492540259F249624AD24A73
:10164400424BB24B224C456182805E8BCDB7011177
:1016540097470000938787EB22CC03A4470B26CA45
:1016640006CE2AC42EC6854419E40145F2406244DC
:10167400D244056182808347910003471400858B1F
:101684006304F7000044CDB719469305A100130580
:101694002400EFF02FDDE31795FE0545C1BF0111CE
:1016A40022CC17440000130464DB18402AC62EC45D
:1016B40032C206CE3C4B93F7F7F73CCB970003E0DE
:1016C400E78060BA184097460000938666D63C4B84
:1016D40093E707083CCB9C423245A24523A0070070
:1016E4000347150003482500220742084297034890
:1016F40005004297034835006208429798D703478C
:1017040055000348650022074208429703484500F4
:1017140042970348750062084297D8D7034795005B
:101724000348A500220742084297034885004297D0
:101734000348B5006208429798DB0347D500034885
:10174400E5002207420842970348C5000345F50017
:10175400429762052A97D8DB03C7150003C5250005
:10176400220742052A9703C505002A9703C53500B9
:1017740062052A9798CF03C7550003C56500220761
:1017840042052A9703C545002A9703C575006205DB
:101794002A97D8CF03C7950003C5A50022074205A1
:1017A4002A9703C585002A9703C5B50062052A97C1
:1017B40098D303C7D50003C5E500220742052A973D
:1017C40003C5C50083C5F5002A97E2052E97D8D333
:1017D400D843759BD8C3D84313671700D8C398431D
:1017E4001367170098C3124698425C43858BD1E770
:1017F4001C4F01452300F6009C429C4FA183A3008B
:10180400F6009C429C4FC1832301F6009C429C4FEE
:10181400E183A301F6009C42D84F2302E600D84F8F
:101824002183A302E600D84F41832303E600D84F67
:101834006183A303E60098532304E60098532183AD
:10184400A304E600985341832305E600985361837B
:10185400A305E600D8532306E600D8532183A30644
:10186400E600D85341832307E600DC53E183A30752
:10187400F600F2406244056182800100B5B7174763
:101884000000130727BB1443411122C49C5E4AC0C5
:1018940006C6998326C2858B3A841749000013092A
:1018A40029B9D1CB9C5E97440000938464B993F723
:1018B400F7F99CDE174700000347E7B893070008D1
:1018C400631BF700832709009C4393F7070417471A
:1018D4000000230AF7B683C7040093F707049DC3E7
:1018E400974700009387479E9C4382979747000041
:1018F40023A0A7B683C7040093F7F70B174700008C
:101904002300F7B483C7440093F707048DE78547A2
:1019140017470000A308F7B297470000938707B45E
:101924009C43096798C7130700FC97460000238B64
:10193400E6B0D844F8D31C40985F1183058B09CBDB
:10194400985F3D9B98DF054797460000238CE6AEE1
:10195400985F1D83058B11CB985F1377F7F798DF9A
:10196400854717470000230FF7AC83270900D843A6
:101974000583058B19C7D843759BD8C3D843799B76
:10198400D8C3B24022449244024941018280397151
:1019940006DE16DC1ADA1ED82AD62ED432D236D077
:1019A4003ACE3ECC42CA46C872C676C47AC27EC01B
:1019B400F935F250E2525253C2533255A2551256DF
:1019C40082567247E2475248C248324EA24E124FE4
:1019D400824F21617300203097470000938707A846
:1019E4009443974700009387A7A503C70700058B77
:1019F40011CB97470000238707A497470000A383D0
:101A040007A4828003C71700058B65F7F85271FF9E
:101A140083C75700DDB7174800001308A8A10327A0
:101A240008001C5F9583858BD1E709C61C5BBD83C9
:101A34002300F60085CA83270800985B460793575E
:101A440067016356070093E707C0C207C183039782
:101A54000600C207C18709C7BA970947B3C7E70297
:101A64002390F60085CD834715008DCB9746000063
:101A740083C6669D93F606041387970089478DCA2B
:101A84003A9503470500854699471376F70663118F
:101A9400D60262076187B947634C070083270800B1
:101AA4009C5FED838D8B17470000A300F79A814755
:101AB4003E8582808547EDBF411122C406C6174486
:101AC40000001304A499184049E9AE877453FDFE3D
:101AD4003E85B285974700002385079697F002E07C
:101AE400E780604E974700009387C7949C43B706EE
:101AF40080009843558F98C3D857719BD8D7974780
:101B04000000A381079497470000A38B07921C4011
:101B1400094798C3B7F700E003A707D16D9B23A833
:101B2400E7D003A707D15D9B23A8E7D0730050102B
:101B34001440174700001307A79083472700858B9D
:101B440089EB83473700858BD9C797470000238BE0
:101B5400078EB2402244410182808D476310F50212
:101B6400974700009387078D9C43B70680009843EE
:101B7400558F98C3D857719BD8D75DBF8547E31954
:101B8400F5FAB567BD075CC70F1000001C40096774
:101B9400094698C7130700F8974600002384E68A8D
:101BA40017470000130707891443984231830D8BAC
:101BB4006319C7001307E043F8D33D673D07D8C74F
:101BC40085BF984231830D8B01E713076019EDB788
:101BD4001307E01BD5B7FC52ADF3A5BF5D7152DC12
:101BE400174A0000130A0A8503270A0086C6A2C4FE
:101BF400A6C2CAC04EDE1C43974900009389C98A15
:101C0400174900001309898593F7F7E793E7070855
:101C14001CC383A609003707CEFF7D179C46130615
:101C240080022A84F98F9CC68327090013070008C1
:101C34002800B8CBAE8493051008EFE03FFD97F081
:101C440002E0E780406297F002E0E780606F83275C
:101C54000A009376F41F370FFCFF23A40700984B68
:101C64004E88CA881367F70398CBF84F130510F80A
:101C7400D285137707E0558FF8CF9843F576FD1694
:101C8400758F98C39843B7063300B70204001377DF
:101C9400F7E798C398439303401F7D1F1377F7E733
:101CA4001367071098C303A70900930F800285499F
:101CB4001C47D58F1CC7832709001307900D3400D8
:101CC400B8CB1149014713533700269383470300C8
:101CD40013767700B3D7C740858BDDCF9C41832E25
:101CE4000800239C07042390070603AECE02137E4C
:101CF400DEFF23A6CE0383AE0700137EF70793FE11
:101D04000EF833EECE0123A0C70103AE4702336EB3
:101D14005E0023A2C70383AE0800014E23A27E0601
:101D240003DA070663074E0303AE0703038A0600BC
:101D3400135EFE00620E135E8E416358CA0103AE49
:101D44000703135EFE002380C60103DE0706137E2D
:101D5400FE0F03AA4E0663060A0003DA8705E37F33
:101D640049FB03AE4702337EEE0123A2C7038387F8
:101D74000600635CF400034E03003396C900134667
:101D8400F6FF3376C6012300C3003E8663D3A70063
:101D94002A8613158601618505071377F70F8506D3
:101DA400E313F7F3B640264496440649F259625ABF
:101DB40061618280973600009386466A9C42D847C8
:101DC400131617016355060298471316170163503B
:101DD40006027D57B8D71737000013072745584F19
:101DE4000507173600002321E646116798C7984770
:101DF4000D83058B1DC317370000034787641367E2
:101E0400170017360000230EE662130700F8173692
:101E140000002309E662214798C79847058B09CF3C
:101E2400173700000347D761136717001736000000
:101E3400A308E660054798C798470983058B09E717
:101E440098470583058B31CF984717360000130652
:101E5400265F173500001305E55D0983058B6303D1
:101E640007101841184331830D8B75EBAC4B184E9A
:101E740093F5050203471700CDCD79EF13077006DC
:101E8400D8CF03470600136717001736000023094D
:101E9400E65A114798C718415C57F19B93E717001E
:101EA4005CD79C4298479316370163D6060297364F
:101EB400000083C6E66CC18A173700001307076564
:101EC400C5CE0347470713670702973600002389E7
:101ED400E66A056798C798479316270163D10602F7
:101EE40017370000034707566207618763570700E7
:101EF4000547973600002387E654096798C7984733
:101F04009316070163D606029736000083C6566708
:101F1400858A173700001307675FADCE034757075D
:101F24001367270097360000A38CE664216798C7DF
:101F3400828029D785456315B7001307B00689B792
:101F440089456315B7001307F0061DBF8D4563155A
:101F5400B700130730072DB71307500715B713073A
:101F6400600739BF034736001367170017360000B0
:101F7400A309E64C094739BF834647070946BD8A8A
:101F84006388C600034747078D463D8BE313D7F4A8
:101F9400114725BF83465707918AC9DA0347570774
:101FA4001367870041B7397106DE16DC1ADA1ED8CA
:101FB4002AD62ED432D236D03ACE3ECC42CA46C8E5
:101FC40072C676C47AC27EC0F533F250E2525253DE
:101FD400C2533255A255125682567247E2475248AE
:101FE400C248324EA24E124F824F216173002030FC
:101FF400173700001307C7468346B7019737000019
:1020040083C7D7484C4BB697FD8B33D7F50097362B
:102014000000A387F64497360000A389F646058B93
:1020240015EF173700000347B746B3F7E7028146B9
:1020340001471305000233D6E500058A1378F70F2C
:1020440019CA6397D70097370000A38B0741828092
:10205400850693F6F60F0507E31FA7FC82809737E2
:102064000000938767269C43011122CC4EC606CEFE
:1020740026CA4AC852C456C282979737000093872B
:102084002740804781496305A406BE849737000032
:102094009387471F038767013E8963550706018DB0
:1020A400135455009737000083C7273D9379F501F2
:1020B400636DF402370AC0A8B70A4057153F9C4421
:1020C4009736000083C6663B139756003E978307F6
:1020D4006901158C63C507006363470156979737F9
:1020E400000023A3E73AE37BD4FC1604B36934016C
:1020F400F24062444E85D2444249B249224A924A4D
:1021040005618280E37D85F8B707C0A833848740E2
:10211400229579B7973700009387071B9C43411199
:1021240022C406C626C28297973700009387473594
:1021340080476309A406BE849737000093878714F9
:102144008387670163D80704018D135455009737BB
:10215400000083C787326367F404593D9844973776
:10216400000083C787319396570036971D8C9736A6
:10217400000023ABE630E372F4FE2244B240924402
:10218400173500000345D52D8145410117F302E0C1
:102194006700A362E37A85FAB707C0A8338487404F
:1021A400229565B7B2402244924441018280973718
:1021B40000009387672F9843B75702009387079FC0
:1021C40083260709139656006358060083260709D9
:1021D4001396660063440600FD17FDF3828071C503
:1021E400AA870145E9C58D07C207C183F19BC207D0
:1021F400C18313074003636FF70217370000130707
:10220400A7300843173700001307872F1443639838
:10221400A602173700001307E706185B014541CBF8
:102224004111C20706C60545DD8D0297B24001453E
:1022340041018280173700001307C72CD9B7035711
:10224400650035E303574500636FF704B306F740B1
:102254002146637CD60203280500938687001D8FE0
:10226400AA966117173600000356A6FC2392E600CF
:1022740023A006012393060014C12312F5001307BB
:1022840086FF973600002396E6FA2313B5009735A8
:10229400000083D505FAB387F54017370000231AE9
:1022A400F7F82105828008419DB70145828082802C
:1022B4000DC1973700009387272503A3070097379D
:1022C40000009387E72383A8070081469A8763E386
:1022D4001701828003A80700636DF50A636BA80ADF
:1022E40013878700E367E5FE03D6670021670507C8
:1022F4006317E60003C7C1E30507238EE1E29735C0
:1023040000009385A5F203D6470003D76500239305
:10231400070032974207418317350000231BE5F07D
:10232400638A6702173500001305C51D084163035E
:10233400F50203D5660019ED83D7460023A00601F4
:1023440021073E9621062392C60097370000239268
:10235400E7EEB6879843E30E17F7973600009386A7
:10236400661A9442E307D7F683566700BDF283D614
:102374004700035647001843A106B2962392D7009C
:1023840098C383D76500A107173700002313F7EA22
:102394008280BE86C28725BF0111973700009387CC
:1023A400E71622CC03A4C70B26CA4AC84EC606CEDB
:1023B400AA8413092500854915C083C7140003475F
:1023C4003400858B6304F700405CFDB71946930520
:1023D40044004A85EFE01F89E31835FF2285F24067
:1023E4006244D2444249B24905618280411197371F
:1023F40000009387A71122C403A4C70B26C24AC0B6
:1024040006C693042500054901E82285B24022440A
:102414009244024941018280A6851305A40297A033
:1024240003E0E780A0CBE30225FF405CF1BF41114C
:10243400973700009387870D22C403A4C70B26C2D5
:102444004AC006C693042500054901E82285B24026
:1024540022449244024941018280A6851305A401C5
:1024640097A003E0E78080C7E30225FF405CF1BF4B
:102474009711FF1F9381C1DC1761FF1F130101B87E
:1024840017E5FFFF130505B897E5FE1F938545B7CC
:102494001706FF1F1306C6FD63FAC5008322050055
:1024A40023A0550011059105E3EAC5FE17E50200D6
:1024B4001305459E9705FF1F938585FB1386C196DB
:1024C40063FAC5008322050023A055001105910578
:1024D400E3EAC5FE138581CF9735FF1F93858514E5
:1024E4006377B500232005001105E36DB5FEFD42B9
:1024F400739002BC8D42739042809302800873A053
:10250400023097E2FE1F9382A2AF93E232007390EF
:102514005230978200009382825973901234730070
:1025240020302A8309CA83830500230073007D16A3
:10253400050385056DFA82802A8311C62300B30042
:102544007D16050365FE828015C22A83854663676E
:10255400B500FD561307F6FF3A93BA958383050039
:10256400230073007D163693B6956DFA8280B717F3
:10257400004003C777051A0592054D8D1377E70FC1
:1025840013653500A38BE7041375F50FA38CA7041B
:102594008280B717004003C777051377E70FA38B33
:1025A400E704130700F8A38DE7043D47238CE704F1
:1025B40013075003A38CE7048280B717004003C7B6
:1025C400E704930670052380D7040D89930680FAE7
:1025D4001377C70F498F2380D70401000100238795
:1025E400E7042380070482804111B7170040985FF5
:1025F4003AC6945F3247E39CE6FE3245410182804D
:102604005D71CAC04EDE86C6A2C4A6C252DC56DACA
:102614005AD85ED662D466D26AD06ECEAA89EF004A
:10262400F002B7170040930670052380D704130700
:1026340080FA2A892380E7040100010003C6F70217
:1026440013668600A387C70203C6F7021376760FC4
:10265400A387C7022380D7042380E7040100010075
:1026640003C6E7021376C60F2387C70203C6E70231
:10267400136616002387C7022380D7042380E70448
:1026840001000100930480C103C73705B3449502D8
:10269400116B1377870FA389E70403C73705930BDF
:1026A4000BE8130A500213671700A389E704930A7F
:1026B40060FB37140040930D0404130D7005930C54
:1026C40080FA617C7D1BB3477503916B338A4403A5
:1026D4003EC0A167938707D0334AFA02B38A5403F2
:1026E400B30740413EC4BD67938707A6B3C7FA0248
:1026F400814A3EC2930770052380FD0023809D011B
:10270400010001008347340593E70702A309F40499
:1027140083570405B3E77701C207C1832318F40480
:1027240083570405B3E78701C207C1832318F40460
:102734008347340593F707026380072C83473405E6
:10274400A18BEDDF2380AD0123809D0101000100F9
:102754008347340593F7F70DA309F404834734053D
:1027640093E70702A309F40483570405B3E7770149
:10277400C207C1832318F40483570405B3E7870110
:10278400C207C1832318F4048347340593F707026F
:102794006381072883473405A18BEDFFB135AA87F0
:1027A4003EC69935B247E30DF5FE83570405B3E7FA
:1027B4007701C207C1832318F40483473405A18B2E
:1027C400EDDF035704058347240533776701B38797
:1027D40067033E9782471D8F6355EA00A24763470C
:1027E400F7248D476396FA24B71700401307700542
:1027F4002380E704130780FA2380E7040100010023
:1028040003C7370593F6F90F130670051377870F7F
:10281400A389E70403C73705930580FA558FA38975
:10282400E70403C737051D8B631E3725130770059F
:102834002380E704130780FA2380E70401000100E2
:1028440003C737059166130680FA1377F70DA3893A
:10285400E70403C7370513670702A389E70403D70F
:102864000705558F2398E70403D70705A166558FFD
:102874002398E70493067005B717004003C737058C
:1028840013770702630C0720B717004003C7370507
:10289400218B6DDF130770052380E704130780FA8B
:1028A4002380E7040100010003C73705916613067E
:1028B40080FA1377F70DA389E70403C73705136775
:1028C4000702A389E70403D70705558F2398E70474
:1028D40003D70705A166558F2398E704930670056F
:1028E400B717004003C73705137707026305071CB2
:1028F4003717004083473705A18BEDFFF5312A8454
:10290400E531E30F85FE37170040835707059166CD
:10291400D58F2318F70483473705A18BEDDF930781
:1029240070052300F704930780FA2300F7040100DD
:10293400010083473705B304904093F7F70DA309CB
:10294400F704835707058346270511677D17F98F19
:102954003387E602B7460F00938606243349D9022B
:10296400BA970567130707FA331737019306001060
:10297400330727033347D702930660550E07998F11
:102984000547331737010D87330797023307D702FB
:10299400BD66938606A63347D7029306800C635917
:1029A400F012B387D702B3C7E70285070947B3C755
:1029B400E702B7160040130770052380E6041307E7
:1029C40080FA2380E60496070100010003D7C602BB
:1029D400B6402644BA97C207C1832396F6029644AA
:1029E4000649F259625AD25A425BB25B225C925C4B
:1029F400025DF24D616182802380AD0123809D01DF
:102A0400010001008347340593E70702A309F40496
:102A140005B32380AD0123809D010100010083479C
:102A2400340593E70702A309F404B9BBE39E0ADA69
:102A340093861A0093FAF60F931717006357E00270
:102A44001247B3C7E702850709472380AD01B3C71F
:102A5400E70223809D01010001000357C402BA97D5
:102A6400C207C1832316F40271B1130760FB3387D5
:102A7400E4023D65130505A63347A702B3C7E70281
:102A8400FD17D9B72380C7042380B70401000100D0
:102A940003C73705558FA389E70461B32380D7049F
:102AA4002380C7040100010003C737051367070229
:102AB400A389E704E1B32380D7042380C70401007A
:102AC400010003C7370513670702A389E70419BD8B
:102AD400B387D702B3C7E702FD17C9BD914763EABD
:102AE400B70897B702009387677B8A05BE9598411C
:102AF4003E97B71700409387470B028794431345CB
:102B0400F5FF37170040E98E94C39306070B9C42E8
:102B1400E98F9CC29307070A9843798D88C3828002
:102B240090439346F5FF37170040758E90C3130604
:102B3400070B1C42C98F1CC29307070A9843F98EDE
:102B440094C38280944337170040C98E94C393067C
:102B5400070B9C421345F5FF65BF94431347F5FFEC
:102B6400758F98C3B71700409387070A9843498F16
:102B740098C382809843498FEDB7914763EAB708B9
:102B840097B702009387C7728A05BE9598413E970E
:102B9400B71700409387470D028794431345F5FF09
:102BA40037170040E98E94C39306070D9C42E98FC2
:102BB4009CC29307070C9843798D88C38280904305
:102BC4009346F5FF37170040758E90C31306070D23
:102BD4001C42C98F1CC29307070C9843F98E94C3F7
:102BE4008280944337170040C98E94C39306070D1F
:102BF4009C421345F5FF65BF94431347F5FF758F5A
:102C040098C3B71700409387070C9843498F98C31C
:102C140082809843498FEDB7131705018947418393
:102C2400638BF50463E2B7021346F7FF9DE9B71718
:102C3400004083D64709F18E239AD7089387C70AA1
:102C44009443C98E94C321A08D47638CF502B717B2
:102C54000040239EE70883D60709558F2398E70889
:102C64008280B717004083D64709F18E239AD7088C
:102C74009387870AF1B7B717004083D64709D98EDF
:102C840065BFB717004083D64709D98EC5B7371734
:102C940000408357870109C5CD8F231CF70082802C
:102CA40093C5F5FFED8FD5BF375700408357478055
:102CB4004205418189C5C98F2312F780828013455B
:102CC400F5FFE98FD5BF375700408357078011C5FB
:102CD400A166D58F2310F7808280C607C583DDBF28
:102CE400011126CAB754004052C43E8A83D70480D7
:102CF4004EC6BA892167D98F06CE22CC4AC856C29D
:102D04005AC02390F4802A8901452E84328BB68AD6
:102D14005D3F2D2A37480F00130808243358050354
:102D240083D74480C207C18393F707FCC207C183DA
:102D34002392F48083D74480B3E70701C207C18399
:102D44002392F48083D70480C207C183F99BC2070E
:102D5400C1832390F480E1679387076A63E4870A59
:102D640006043354850285671387C7FF114642045E
:102D74004180618F01C7FD173376F400050893077E
:102D8400F00363F407011308F0034208B757004047
:102D94001358080123900783B7550040239EC5802C
:102DA40083D70580F240624493E717002390F580AF
:102DB40083D70580D244024BC207C18393F757BF20
:102DC400C207C1832390F58003D50580336555017F
:102DD40033652501420541812390A58083D78580F1
:102DE4002394058083D685804249924AB3E74601FD
:102DF40033E73701420741832394E580B249224AED
:102E040005618280631A0B028D45B305B402B35584
:102E1400B502D205D1812E8691E105464206418252
:102E2400A1675D8E9307C0123308F8029307803EB2
:102E34003358F802050891BFE5473304F40291675B
:102E440033568502520651825D8ED9BFB7170040B2
:102E540003D787009317070113770704C18309EB8E
:102E6400FD8B3755E801130505803345F502828053
:102E740013F7070C930600046316D700FD8B374540
:102E84009C1CD5B72165130505D0828037E700E087
:102E94001C435443A183E206D58F1CC1FD57232054
:102EA400F7182322F718828013178500B7E700E08C
:102EB40023A0E710618123A2A7108280B7F700E066
:102EC4008847CC4782803285814737470040A146F6
:102ED40063C3A70082800346B7C0E30ED6FE3386E1
:102EE400F5000346060085072304C7C0D5B71205BD
:102EF4009A054D8D1365C5001375F50FB72700406E
:102F04002380A7408280B727004001E5A3800740C3
:102F14008280239CB740239EC740154791E2054712
:102F2400A380E7408280411122C406C62A84393F27
:102F34002947B307E502B2408D83B3D78702224401
:102F44009507B3D7E70237470040C207C18323166A
:102F5400F7C041018280716541111305052006C641
:102F6400D937B7470040130770F82381E7C00D47EE
:102F7400A381E7C013070004A380E7C005472387A4
:102F8400E7C0B24041018280011106CE22CC83A762
:102F940041D091C3829703A441D61315040183A79A
:102FA40001D0418181C72AC6829732459707FF1F06
:102FB40083D747A96374F50403D761806373A704B7
:102FC40083A6C1CF89C66244F24005618286131587
:102FD400040185074181998F198D65473305E50201
:102FE400C207C18389831387F7FF3A953345F502F6
:102FF4001375F50FF24062440561828013054006A3
:10300400D5BF0145C5BF2D453DEBDC41411122C46F
:1030140026C206C603C7070083C71700B6843284D6
:10302400A207D98F0D67930697A1639AD702A93F88
:103034009707FF1F9387E7A003C707006374E500A2
:103044002380A70083C7070005472390E4002300DB
:10305400F4000145B24022449244410182801307A6
:1030640087902945E398E7FECC4589472390F400EF
:103074000946228597E0FE1FE780C0B5D9BF82804C
:10308400DC41411122C406C626C203C8070083C717
:1030940017002944A207B3E707010D681308289015
:1030A400639607038547B284EFE0800D2A8419ED07
:1030B40003A781D001CF83C7140083C60400A207ED
:1030C400D58F93B71700138517000297B240228556
:1030D400224492444101828083474500858BADC7D9
:1030E400011122CC2A8403552500938501EC06CED8
:1030F400EFE0C003058929C5035524000147814633
:103104000546ED45EFD0F03C2AC61DC997F7FE1FD2
:1031140083D767392314F10085472315F1009707F6
:10312400FF1F83C707922300F500035524000146BF
:103134002C00EFE0905C09C5ED452800EFD030513C
:10314400F240624405618280828041654111938529
:1031540001EC7D1506C6EFF0904BB24097F6FE1FCA
:10316400938606314146954517F5FE1F1305053133
:1031740041016FF0F03E23A4A1D0828085476318FB
:10318400F50283470600238CF1CE1707FF1F034780
:10319400478B6370F702411117050000130505F40E
:1031A40006C6EF20A103B2400145410182800945D2
:1031B40082800145828089476305F50263EBA7009D
:1031C40011ED9707FF1F83C7C7872380F5000145CB
:1031D40082808D47630EF5000945828083C781CFC5
:1031E400EDB797F7FE1F83D7072A2390F500C5B7DD
:1031F4009707FF1F83D7C7842392F50097F7FE1F15
:103204009387C72703D7A70283D7A7032390E50093
:103214002391F50085472383F50055BF411106C668
:10322400A5339707FF1F9387C78103C70700637AF6
:10323400E5002380A70017050000130525EAEF1019
:10324400F179B240014541018280C167F917630CED
:10325400F502411122C406C685472A84639AF50003
:1032640022852244B240938501EC41016FF0303A4B
:1032740089476396F5008545EF10D17075D1B2404A
:1032840022444101828082803285D041411106C6A8
:1032940083451600034806000D66A205B3E5050143
:1032A40013980501135808419308A6A263C808039C
:1032B400130626A26358060375761306C65DB295F7
:1032C400C205C18119466363B60217B80200130828
:1032D40068FF8A05C295904142960286130606A5A8
:1032E400630DC81023900600A94525A01D469D45E1
:1032F4006361E6022146198E63F3C7003E8623907C
:10330400C6009385C1D0BA9597E0FE1FE780808CF4
:103314008145B2402E85410182802D469D45E36A58
:10332400E6FE3146198E63F3C7003E862390C6003D
:1033340097B502009385C501F9B731469D45E36A07
:10334400E6FC3546198E63F3C7003E862390C6001B
:1033540097B502009385C5FE7DB741469D45E36A56
:10336400E6FA4546198E63F3C7003E862390C600ED
:1033740097B50200938585FB79B741469D45E36A7D
:10338400E6F84546198E63F3C7003E862390C600CF
:1033940097B50200938545F8BDB741469D45E36A5C
:1033A400E6F64546198E63F3C7003E862390C600B1
:1033B40097B50200938505F5B9B741469D45E36A83
:1033C400E6F44546198E63F3C7003E862390C60093
:1033D40097B502009385C5F13DB735469D45E36A2F
:1033E400E6F23946198E63F3C7003E862390C60081
:1033F40097B502009385C5EE39B719469D45E36A32
:10340400E6F03386E54063F3C7003E862390C600AA
:1034140097F5FE1F93854563FDB597F6FE1F9386CA
:10342400E60A4146CD4517F5FE1F1305E50A6FF080
:10343400301382802A8783C7C1D103A501D283C6F2
:10344400F18299E301458280035605006316E60084
:1034540003466500E309D6FEFD1793F7F70F210530
:10346400CDB7B2862E86AA8517B50200130545EF9F
:103474006F90C2500111930500030D4506CEEFA0D5
:103484003015930500051145EFA090149305C00372
:103494000545EFA0F01385471306F1008545130594
:1034A4005030A307F100EF403229F24005618280D9
:1034B4008547631AF5001166130686A9894503C575
:1034C40001D36F80006289476317F500894503C5FE
:1034D40001D36F803002828085476390F50219EA38
:1034E400138701D92384B1D28347070093E72700C8
:1034F4002300F7002382C1D2828009476391E50249
:1035040019EE2384F1D2138701D98347070003D529
:1035140061D293E727002300F7006F00300A82800E
:10352400011122CC06CE83A781D12E8499C79C4752
:1035340089C76244F240056182876C0013057040BC
:10354400EF308201324622858145EF304243F2401A
:1035540062440561828001119397050126CA06CE53
:1035640022CC4AC84EC652C4C187AE8463D707086A
:1035740003C501D3EF70B07B2A8439C90347050022
:103584009307000D6313F704834725004547638BB6
:10359400E7046547639BE70217B50200130585DE60
:1035A400EF90C23D130954009309B40017BA020006
:1035B400130A8ADE8345090052850509EF90023C0F
:1035C400E31A39FF2945EF90023F2285EF70106F0F
:1035D4002165258DF2406244D2444249B249224ACF
:1035E40005618280034665008345750017B50200B6
:1035F400130505DBEF908238C9BF93F7150085C327
:1036040017F6FE1F1306060197F5FE1F9385C5FFE7
:1036140003C501D3EF40C26013C5140065BF13F5A1
:1036240025004DD9E53E1166130686A9894503C5D3
:1036340001D3EF80004B13C5240069BF797122D4F4
:103644004AD052CC06D626D24ECE56CA91472A84A8
:103654002E89138AC1D26314F50483D7A5001306F7
:10366400E1008545130550302393F1D2230701006F
:10367400238401D2EF40520C83A781D191C7DC4748
:1036840081C7CA852285829723208A00B25022549A
:1036940092540259F249624AD24A45618280032710
:1036A4000A00E31BF7FC938461D203D5040085452B
:1036B400693E03D504008545EF00C07583DA040034
:1036C400C167F917639BFA0285449305E10013056A
:1036D4005041238401D2A387918223070100EF2064
:1036E400B2678347E100A1E303C741D29147E315E1
:1036F400F7F84933238201D241B783A901D283C4A5
:10370400C1D1F9D003D5290011C99305E100EFE037
:10371400400709C54C455685EFF0606FFD1493F4DE
:10372400F40FA109F9BF83A741D183C74700898B4F
:10373400C5DF9305000A0D45EFA080699305000AD3
:103744001145EFA0E06881450545EFA060681306C8
:10375400E10085451305503023079100EF40C27DF9
:1037640061B7011117050000130525DF06CE22CC31
:10377400EF801000138401D385471306F1008545BB
:103784002300A40013054041A307F100EF30A24633
:103794007D55EFD0401C7D55EFF04064BD39753246
:1037A400ED23170500001305E5D0F13217050000DD
:1037B400130565C80925034504006244F2408545A4
:1037C40005616F80C01F23ACB1D023AAA1D0828031
:1037D40023A0B1D2238EA1D08280797106D622D4BF
:1037E40026D24AD04ECE52CC83A7C1D21147639879
:1037F400E70A83C781D299EB4144B250228522540F
:1038040092540259F249624A45618280B2843689EF
:1038140003A401D283C7C1D103C7F18285C78346FC
:1038240044006393A60283465400639FB600834614
:103834006400639BE6000355240093056100EFD008
:10384400507401E9554455BFFD1793F7F70F210450
:10385400F1B7938961D203D50900014781462686D1
:10386400ED45035A0400EFD0C0462AC64D4451D555
:103874002686CA85231441012315910097D0FE1F83
:10388400E780403503D5090001462C00EFE0E066EF
:103894002A8425D5ED452800EFD0605BB9BF0947E0
:1038A400E38CE7F42C001305504123040100EF20BE
:1038B400B24A834781008DCB930500020D45EFA0EA
:1038C4002051930500031145EFA08050954505450F
:1038D400EFA0005085473000854513055030230480
:1038E400F100EF40626509BF713639B741114AC032
:1038F4003689D44126C206C622C403C41600B28443
:1039040003C6060022040D68518C01CF1308B8A425
:103914002D4563080407B240224492440249410100
:1039240082809306D8A46300D402930628A2630C71
:10393400D400F5789388E85CA298C20893D808016B
:10394400854663EC160303D5A500ED341DC183A79A
:1039540081D12286224403A8070083455500B24042
:1039640003454500A6874A8792440249854641019A
:10397400028823100900014579BF1306B8A463190E
:10398400C40203D881831D45E37707F93308E8406F
:1039940063D307013E88CC4513160801231009019F
:1039A4004182BA95268597D0FE1FE780A022E1B711
:1039B4009307A8A46318F40091472310F900114653
:1039C400CC45CDB7930788906317F400894723103B
:1039D400F9000946F5B79307E8A4631AF400DC4537
:1039E4002310D90083C707002380F40069B71308A4
:1039F4007890E31204F9D9BF011106CE22CC26CA6D
:103A04004AC82317D10063130712DC412E89B284FC
:103A140003C4170083C607008D672204558C938660
:103A2400D7A46306D400938627A3631CD40203554A
:103A3400A900093401E90145F2406244D2444249F3
:103A44000561828083A781D103A8070083455500BF
:103A540003454500A6871307E100814622860298A4
:103A6400E1BF9386C7A46314D4020357E1008547DA
:103A74003545E313F7FC8347060013050008E36D9F
:103A8400F7FA03A781D158433E8502976DB7938611
:103A940027906313D4068356E1008547EFD0406E28
:103AA40041FD03C6140083C704008356A9002206FF
:103AB4005D8E03A701D283C7C1D1B5DF835527002B
:103AC4006397D50283A781D103A8070085470345DF
:103AD4004700834557008D466313F60089460D66FB
:103AE400A6871307E100130626900298A9B7FD17CD
:103AF40093F7F70F2107D1B79387E7A4E31DF4F2F7
:103B04000357E10085473545E318F7F2834706007C
:103B140013050008E362F7F2D8453335F0000905D0
:103B24002300F70003A781D1584385B72D4529B752
:103B3400411122C441641305F4FF938501F006C6C4
:103B440026C24AC0EFF0A02C1305F4FF938501EFC1
:103B5400EFF0E02B1305F4FF938501EEEFF0202B3B
:103B64001305F4FF938501EDEFF0602A97F6FE1F2D
:103B7400938606AB41469305200217F5FE1F1305F5
:103B8400E5AA97F4FE1F938464AAEFF0601DCC4C61
:103B94002A890945EFF02FE2138401F103D78182CA
:103BA4002316E40003D7A41083D7C1822312F400A0
:103BB4002314E40003D7A41183D7A40C03D5A418B9
:103BC4002315E40013874182834507000346170049
:103BD40003D7A4142310F40083D7A40D2318E400FE
:103BE40003D7A4152311F40085472319E400138790
:103BF400018283460700034717002303F4002307C9
:103C0400F400230BF400230ED400230FF400230A42
:103C1400B400A30AC400A30EE400231CA4002302DE
:103C2400B402231D0400A302C402A306E40203D7C2
:103C3400A41E03D6A41B938581F42314E40203D7A2
:103C440081812310C402231AE40203D6A41C03D7DF
:103C5400A4200D452311C4022306D4022318E40230
:103C6400230BF40223030402231504022307040292
:103C740023190402EFF02FD4A2852145913EB240CE
:103C8400224492444A850249410182808D6713850A
:103C940027A36300A6049387D7A4631DF60089476E
:103CA400639CF500854735456397F6008347070015
:103CB400238AF1D2014582808D472945E39DF5FE93
:103CC40085473545E399F6FE83470700A388F1D27B
:103CD400D5B785473545E390F6FE8347070023892A
:103CE400F1D2C9BF8D67138527A36309A602938701
:103CF400D7A40145631AF6008947639BF50083C77F
:103D040041D32300F70005452390A6000145828096
:103D14008D47E39BF5FE83C711D3E5B783C721D352
:103D2400CDB70145828039EFDC41AE8803C8070076
:103D340083C71700A207B3E707010D68930EF8A421
:103D4400639AD70391473548639FF60203A5C800D9
:103D54003283411111469A8506C697D0FE1FE7802B
:103D640060E7054583A741D48297B2400148428564
:103D7400410182809308289029486396170185475A
:103D84006FD000402D484285828041654111938562
:103D940001F57D1506C6EFF08007B24097F6FE1FC9
:103DA4009386C6AA4146994517F5FE1F1305C5AA71
:103DB40041016FE0F07A23A2A1D48280011193859E
:103DC40001F522CC06CE2A84EFD0403605891DCDDC
:103DD400014781460546ED452285EFC0906F2AC60E
:103DE40015C597F7FE1F83D7C7AC2314F100854789
:103DF4002315F1002300050001462C002285EFE085
:103E0400C00F09C5ED452800EFD06004F2406244BC
:103E140005618280C167F917630CF502411122C460
:103E240006C685472A84639AF50022852244B24057
:103E3400938501F541016FE0907D89476396F50014
:103E44008545EF10213475D1B2402244410182806E
:103E5400828001458280014582804111B286A60597
:103E64002A862D4506C697D0FE1FE78000A0B240E3
:103E74000145410182809307B00363EDB70201114C
:103E840022CCB2862A84A60532C62545014606CE32
:103E94002EC497D0FE1FE780409DB246A2452286DD
:103EA400294597D0FE1FE780409CF24062440145BB
:103EB40005618280014582808947630EF50063E7CE
:103EC400A7009307C00311ED014582808D47630964
:103ED400F50011458280930700202390F500EDB78B
:103EE40085479CC1D5B709E9411106C69D37B24043
:103EF4001375F50F410182800545828009E941115E
:103F040006C6913FB2401375F50F41018280054505
:103F14008280AA872E85B28581E71396960035BFE5
:103F240011458280AA872E85B28581E71396960073
:103F340099B711458280AA872E85B28591E3ADBFDA
:103F4400114582800145828003471500834705009F
:103F540022075D8F8347250003453500C207D98FAB
:103F640062055D8D828093D785002300B500A30090
:103F7400F50093D70501E1812301F500A301B50004
:103F840082802A960505A30FB5FEE31DC5FE828037
:103F94001C4DF915F91763FAF5008357A500585518
:103FA400B387B7023385E700828001458280AA8700
:103FB4009306B500014503C60700135715001E05F7
:103FC400498F850732971375F70FE396D7FE8280E2
:103FD4001C41AA8685C73E877D459305A003030639
:103FE400070005071378F60F63710503E319B6FE9E
:103FF40083850700130600036384C5007D55828012
:1040040089077D55E31DF7FE98C201458280411161
:1040140026C206C622C4AE8409E925458147B240BA
:1040240022449CC09244410182801C412A84F5D7D9
:1040340003C707007DD38356450003D76700E39E7B
:10404400E6FC03C517004535058961F91C40C1BF6D
:1040540083473500A9CB011122CC06CE9305450335
:1040640010592A840345150085462EC6653D8547AB
:1040740015E510585C50584CA3010400B307F640F2
:1040840063FDE700834624008947B2456397F60041
:104094000345140085463A9671358147F2406244DF
:1040A4003E850561828081473E85828081473387D2
:1040B400F500834607003307F50085072300D70082
:1040C400E317F6FE828093170601C183A183A38DB3
:1040D400F500238DC500034705008D476318F700DD
:1040E4004182238AC5002182A38AC50082801C598B
:1040F400638AB702411122C426C206C62A84AE844A
:10410400813F01ED0345140085462686930544034B
:10411400093519C10545FD5404D8B24022449244DE
:104124004101828001458280411122C406C6FD57A7
:10413400A30105001CD92A845D3F7DE9034734238C
:10414400834724239306B00E22075D8F83474403DD
:104154006388D700E10793F7F70F854663E3F60C0E
:10416400AD67938757A56302F70283470404834628
:10417400F403A207D58F9386F7FFFD8E89E6930695
:1041840000206383D7060D45A1A893066408930510
:10419400E40817A602001306262B83C7060003486B
:1041A400060085060506B3870741638AD502F5D75D
:1041B400834704048346F403A207D58F9386F7FF4D
:1041C400FD8E81EE930600206399D7008346140484
:1041D40089C69387F6FFF58F99CF094511A0E9FBAE
:1041E400B24022444101828083461404C9DE93878D
:1041F400F6FFF58FC9FB834744048546FD1793F703
:10420400F70F63E0F6028347640483465404A2076D
:10421400D58F81CB8347B4048346A404A207D58FEA
:10422400E1F3AD67938757A50D45E308F7FA4DBF52
:1042340011457DB7854663F4B612184D011122CCA1
:104244004AC806CE26CA4EC652C456C22A892E84ED
:10425400894763F9E50803470500B2846305F70A53
:104264008D476306F70C8947631ED7065C5193D9C3
:104274001500AE9993D59900BE95953DAA873DE169
:10428400130A4903938A1900058893F9F91FD299EF
:1042940093F7F40F01CC83C7090085661397440094
:1042A400C116BD8B758FD98F93F7F70F2380F90053
:1042B4008547A301F9008327490293D59A004A85CB
:1042C400BE953535AA8719ED93FAFA1F569A0DC48F
:1042D40093D7440093F7F70F2300FA008547A3010F
:1042E400F9008147F2406244D2444249B249224A29
:1042F400924A3E850561828083470A00A180BD8879
:10430400C19BC58FD1BF5C51A181BE95CD33AA8716
:1043140071F90604930749031374E41FA2972380D9
:104324009700C204C180A180A380970045BF5C515F
:104334009D81BE956D3BAA8755F50A0493074903F1
:104344001374C41F3E9422850131B70700F0920410
:10435400B375F5009180C58D2285313141B7894708
:104364003E858280797126D206D622D44AD04ECE9A
:10437400AA842EC6F13921E9B2452A842685093951
:10438400938944032A8988D81306002081454E85E1
:10439400CD3E83D7A400636EF40003D5A400018D41
:1043A4003335A000B250225492540259F249456167
:1043B400828003C51400854633068900CE859D3668
:1043C40069FD0504F9B70545F1BF411122C406C6CC
:1043D40026C22A84B53959E9034704008D4763107E
:1043E400F708034744008547631BF7069304440317
:1043F4001306002081452685693693075005230955
:10440400F4229307A0FA4C48A309F4229307200549
:104414001307100493062007230AF402A30AF402E4
:1044240093071006230BF402A30BE402230CD420FD
:10443400A30CD420230DE420A30DF4201305C421E0
:104444001D360C4813050422393E10500345140050
:104454008546050610D8A685F134230204000345D9
:10446400140001468145C13C3335A000B2402244CA
:1044740092444101828079714AD04ECE06D622D42C
:1044840026D252CC56CA23A00500AE893289893679
:10449400634F052A131725009387C1D4BA97804325
:1044A400AA84314505C423A08900834704001379F5
:1044B400E90F85CB03451400EFF0FFA293771500B5
:1044C4008DE363040900118919E90145B2502254AE
:1044D40092540259F249624AD24A4561828029457E
:1044E400F5B713F5F40F23000400A300A400EFF0C4
:1044F400FFA013771500AA870D4569FB6304090023
:10450400918BF1FF81452285053189476313F504B9
:104514008A841309A41F130AA423A6894A85EFF0E9
:10452400BFA223A0A90041099109E31949FF1389F6
:10453400040185498C400D4589C52285F53663F211
:10454400A9029104E31899FE9147631AF500054501
:10455400B5BF9147E30DF5FE854763F4A7003545E4
:10456400B5B7834704040347F403032A0403A207EB
:10457400D98F13070020E394E7FE8349B4048347EB
:10458400A404A209B3E9F90063970900130584059B
:10459400EFF09F9BAA8983444404232E34010547EA
:1045A4009387F4FF2301940093F7F70FE369F7FA75
:1045B400834A140423155401E3830AFA9387FAFF08
:1045C400B3F75701C9FF034964048347540422091C
:1045D4003369F900231424019377F900C9F383475D
:1045E400840403477404A20733E5E70009E51305CF
:1045F4004405EFF07F958347340403472404A2075E
:10460400D98FB1DF33863403135749003E97B3067D
:10461400C700E366D5F43307D540B3555703E360C9
:1046240057F5370700105517E36BB7F23307DA0075
:10463400C166D51693842500D29763ECB6028566CD
:10464400D51604CC232044035CD058D463EDB600C3
:10465400E30709F00D47B29705493387E4028588DB
:104664000583BA942DA8E30C09EEB2978604094990
:104674003DA05CD08347F40558D40347E405A20762
:1046840004CCD98F232044033369F900E31909ECDE
:1046940013050406EFF05F8BAA878A040D499384FF
:1046A400F41F1CD4A580E3EC99EAFD575CC81CC830
:1046B400930700F82302F4008D47631CF90683472F
:1046C400540603474406A207D98F05476393E706B8
:1046D40093051A002285EFF09FA121ED834734232F
:1046E4000347242323020400A207D98F2D6713074D
:1046F40057A56390E70413054403EFF0FF84B7570D
:104704006141938727256316F50213058421EFF091
:10471400BF83B777416193872727631CF50013058F
:10472400C421EFF07F8248C813050422EFF0DF8133
:1047340008C8138781D48357070023002401850701
:10474400C207C1832310F7002313F400BDBB2D451A
:10475400B5BB83C7B50183C6A5012A87A20733E584
:10476400D7008D47631AF70083C7550103C7450176
:10477400A207D98FC2075D8D8280854763FAB70C83
:10478400184D011122CC26CA06CE4AC84EC6AA84A8
:104794002E8463F7E5020347050089466308D706BC
:1047A4008D466306D708631DF70013D915005C51C5
:1047B4002E9993559900BE95EFF07F9311C9FD573B
:1047C400F2406244D2444249B2493E850561828046
:1047D400DC509309190093D599001379F91F269990
:1047E400BE95268503494903EFF07F9069F993F953
:1047F400F91FA69983C749030588A207B3E72701D0
:1048040019C0918375BFD207D1835DBF5C51A1816B
:10481400BE95EFF0DF8D45F506041374E41F26946E
:104824008347540303474403A207D98F51BF5C5104
:104834009D81BE95EFF0BF8B59F10A0413854403A3
:104844001374C41F2295EFF02FF09317450055BF42
:1048540085473E858280797122D426D206D64AD0F5
:104864004ECE52CC854704412E8463FBB7069C4C44
:1048740063F8F5062A89B28509EE85497D5A032530
:104884000900A28522C6D53DB2452A8405E1014529
:1048940031A07D562685EFF0FF9965D1B2502254A0
:1048A40092540259F249624A45618280630A35038F
:1048B400630A450301462685EFF0DF9765F1984CBE
:1048C400DC489306E7FF63FAD7008507DCC883C793
:1048D400440093E717002382F400E362E4FA45BF3F
:1048E40009456DBF05455DBF011126CA4EC652C4B8
:1048F40006CE22CC4AC856C25AC004412A8AAE897E
:10490400B1ED03A90401DC4863020902984C637FFA
:10491400E90099EF0144F24022856244D2444249BD
:10492400B249224A924A024B056182800549FDD36D
:104934004A84854A7D5B9C4C05046365F400E30B63
:1049440059FD094403250A00A285053D35C1630DBF
:104954005501630D6509E31024FF6DBF2685313DC4
:1049640085472A8463E4A700054475B7FD57630FA0
:10497400F5069C4CE361F5FAD84849DF1384190025
:104984006363F400094403250A00A285FD338547C7
:10499400E30CF5FC7D57630BE50411C903A904017D
:1049A40063F527019C4CE365F9F84E8951B775DC32
:1049B4007D56A2852685EFF0FF8715E5639F0900E4
:1049C400984CDC4880C879176374F70283C74400A5
:1049D40093E717002382F4003DBF2286CE85268507
:1049E400EFF05F8571DD8547E310F5F87D5425B759
:1049F400FD17DCC8E1BF79714AD00329050122D42F
:104A040026D252CC06D64ECE56CA13090902B7078F
:104A1400200004412A842E8A6364F900232C0500B3
:104A24001C4C8DC39379F91F639709084C4885077B
:104A34001CCC9DE103D784009357590063EDE7062E
:104A4400232C04001145B250225492540259F249C5
:104A5400624AD24A4561828083D7A40013579900E1
:104A6400FD17F98FA9EB2685093B854AAA8563E4DE
:104A7400AA000945C9BFFD576314F5000545E1B710
:104A84009C4C6365F502E30D0AFA4C482285A93D66
:104A9400AA851D45CDD9E38E55FDFD57E380F5FE6E
:104AA40026852EC6EFF01F8CB24569F94CC82685C1
:104AB400EFF00FCE08CC93844403CE942328240132
:104AC40044CC014549B7797126D206D622D44AD0BE
:104AD4004ECE52CC56CA5AC8B7072000044163EEE2
:104AE400F5008949B250225492540259624AD24A7A
:104AF400424B4E85F2494561828093F9F5012E843B
:104B0400E39109FE0CC90C452A89A9E103C70400F5
:104B1400894763F4E7009C549DEB03D784009357C3
:104B24005400E3F0E7FC8854232CA900232AB9009D
:104B34004DD993579400938444031374F41FAA9794
:104B4400A294232CF900232E990069BFAE8703DABF
:104B5400A400BE85FD5A260A054B637844012685C8
:104B64002EC6EFF0EFC2B245C1B7032509003131BB
:104B7400AA85630A5501E376ABF69C4CE373F5F61C
:104B840033044441D9BF8549B1BF5D718145A2C495
:104B940052DC6AD0032A050086C6A6C2CAC04EDE0D
:104BA40056DA5AD85ED662D466D26ECE2A8D213FAA
:104BB4002A8463170518FD572326FD029309F00F75
:104BC4009304F00F930B500EFD5A3D4B294C832553
:104BD4008D015285EFF0AFD12A8463130516832D1E
:104BE400CD0183C70D00638D071603C7BD009376FF
:104BF400F7032303DD0063867701218B11C76387E5
:104C0400660123265D03E5A8639166110347BD028F
:104C14001377070461EF13F7070465C303270D0136
:104C240083C9DD0093F7F70B2326ED0203C7DD00EC
:104C34009304F00F631C370B03C7BD0183C6AD019A
:104C44002207558F4DEF83C40D003547832CCA00CE
:104C540093F4F403FD14B384E4024166854617A873
:104C640002001308A8867D169308F00FB545330794
:104C74000401034707006E97034917000345070023
:104C840022093369A900BDCE3EC663EA98064A8567
:104C9400EF10F002138314008604E6942AC403D5AB
:104CA40004001AC2EF10B0012247631AA70412438A
:104CB400B2474167CA869A849308F00F17A8020086
:104CC4001308C8801306F7FFB5450504E311B4FAC9
:104CD40003C70D001377070419C791C68604A69C61
:104CE40003D70C0009EFFD1793F4F70F81456A858C
:104CF40019332A84E30D05ECA1A0E389F4F29304AB
:104D0400F00FEDB7E303C9FCDDBF91E46E85EFF06E
:104D14000FAA630735038347BD02858BE39307EE30
:104D24003387FD00B306FD000347070083C6060270
:104D3400158F63858701850765D7E1B5E31307EC14
:104D4400B6402285264496440649F259625AD25AFC
:104D5400425BB25B225C925C025DF24D61618280D7
:104D64001144F9BF5D71A2C486C6A6C2CAC04EDE94
:104D740052DC56DA5AD85ED662D466D28347B5027C
:104D8400194493F7070AF5E703290500AA84014AA1
:104D94000327C90093171A00BA9783D70700E5EBD6
:104DA400938904023146CE854808EFF02FB0034CB6
:104DB400F10193771C006385071293070004456B88
:104DC400A385F402854AC16B130B1B022D464C08C4
:104DD4004E850324C900EFF06FAD954763ED570D81
:104DE400D68770009D46130890033D4513F7F700DE
:104DF400930507036374B80093057703A303B60010
:104E04001387F6FF93D547007D166368F50A930769
:104E140007021306E0078A972386C7FE930500025C
:104E240081471305D0071386E6FFB386F90063F6BE
:104E3400E70083C606006395B6089D461306000284
:104E440063E8E600130607020A960346C6FE050752
:104E54008507B385F400A38FC500E3F1F6FE26852C
:104E64002D332A842DE9850A93074006E390FAF648
:104E74001D44B6402285264496440649F259625A96
:104E8400D25A425BB25B225C925C61618280050A09
:104E940011B70904C146137617008607B29733F693
:104EA4007701058319C2B3C76701FD16EDF60357F1
:104EB400040065F33DB7D687DDBFBA86AE873DB73C
:104EC4009386F60793F6F60F6365D500E307F6F6C7
:104ED4008507850799BF9147E31DF5F8A3858403EA
:104EE400137C2C00854A63080C00310AB547335AF9
:104EF400FA02930A1A008145268503AB0400E136C1
:104F04002A84930B500E11C59147E303F4F695B729
:104F140052848C4C5A85EFF08F9D2A8A631B0512AC
:104F2400DC4C83C707006383770189E7130A140005
:104F340063894A0385452685EFF0FFAB2A8469D946
:104F4400E1B7138817008607AE9783D6070093D777
:104F54008600A300F6002300D600C287C1E6E686D9
:104F640051A0228C5DC89C4893155C002685B385AE
:104F7400B740913E2A84E31E05EE4E85EFF02F8361
:104F8400C16C2A8A3D4B979B0200938B2B54FD1CCA
:104F9400FD5A8C4C4A85EFF08F952A84E31B05EC6F
:104FA400D84C9377FC0FB546FD178325C900B3870A
:104FB400D7021375FC0FA3064701A3056701230657
:104FC4000700230D0700A30D07008146B5483306EB
:104FD4007401034606003A96E39596F723005601BA
:104FE400A30056010504E31414FF638796018607A2
:104FF400BE9583D7050099E3136505042300A70034
:105004008547A301F90081452685EFF0DF9E2A84B8
:10501400E31105E67D1CE31E0CF68C4C4A85EFF08B
:105024000F8D2A84E31705E4C84C1306000281455A
:10503400EFE03FF5C84C2D46CE85EFF02F8783C7B0
:10504400B402D84CE18B2306F7008547A301F9008D
:105054000DB52A8455BD5D7156DA832A0500A6C2B2
:1050640086C6A2C4CAC04EDE52DC5AD85ED662D40A
:1050740066D26AD06ECEAA849306F0021307C005E6
:10508400838705006386D7046384E70423A40400AC
:1050940003C70500FD4763FFE702130BF002930B00
:1050A400C005130CF0079C4001499309000883AC28
:1050B400C7001304F00F130DF003930DE00703C5AD
:1050C4000500138A150063EDA9022DE51144CDA056
:1050D40085057DB7930700F8A385F4022644B640FE
:1050E4000649F259625AD25A425BB25B225C925C24
:1050F400025DF24D26859644814561616FF0BF9C47
:10510400630D850403C7150083861500138A2500E3
:105114002207498F131587002183598D420513F700
:10512400F60F41816374ED0463F6ED0063D0060469
:10513400630E87029305803AEF10E03205C9FD47FC
:10514400E3F6A7F8630F6505630D75056360AC04AA
:10515400179702001307073029A01305F00FD9BFD2
:105164000507830607009DC2E31CD5FE1945B6401A
:10517400264496440649F259625AD25A425BB25BBB
:10518400225C925C025DF24D61618280E30089FEE3
:105194001317190066972310A7000509D28505B7D0
:1051A400050A03070A00E30D67FFE30B77FF0144D9
:1051B400130600029305E00213171900631B090884
:1051C400669723100700E30309FA01471306000258
:1051D40093161700E69683D60600BA8D0507E38971
:1051E400C6FE63960D001307E0026396E60013649F
:1051F40034001374F40F9306E00213171900669732
:105204000357E7FF6305D7007D19E31809FE2D4610
:105214009305000213850402EFE0BFD62147014D38
:105224008149130800029308E00293861D00860D4D
:10523400E69D03D50D006306051663060501631498
:10524400150363862603136434001374F40FB68DB8
:10525400E9BFB386EC0083D6E6FF6384C600E3911E
:10526400B6F67D1991BF6378ED006395260BAD46C4
:10527400631BD70821A02D46631FC70603C704027A
:105284009307500E6315F70095472380F4021364C7
:1052940034001374F40F93F7C90031476387E700B0
:1052A40093F739000D476396E700136424001374E1
:1052B400F40F9377240085E393F7190089C71364E7
:1052C40004011374F40F93F949006386090013640D
:1052D40084001374F40FA38584022685EFF0FF8AFB
:1052E40083C7B40279CD1147E313E5E8918BE390CA
:1052F40007E81545ADBD63882601136434001374B3
:10530400F40F6360D90A8A0993F9F90FCA862D4705
:10531400214D35BFA28D6371AC063AC636C4EF1079
:10532400001A9305803AEF10400D936D2400130684
:10533400F00FA246324793FDFD0F130800029308B5
:10534400E002637AA6021306F7FF6368CD001364D4
:1053540034001374F40F3A8DDDBD3386A4019355E4
:1053640085002300B602050D3386A4012300A6029E
:10537400050D6E84E9BD11C9179602001306460E89
:1053840083050600BDC16319B50093ED3D0093FD8F
:10539400FD0F1305F005C9BF0506DDB793E9290024
:1053A400E1B783C604029307500E6395F600954750
:1053B4002380F402A147E310F7EE8A0993F9F90F69
:1053C400D9BD918BE39507DA83C76400C18B95D36C
:1053D4009C4803C50A0093854A0393F7F71FBE95BB
:1053E400EFF02FB788C4D2857DB91306F5FB4206CA
:1053F4004182E545E3F4C5FA1306F5F94206418214
:10540400E3E4C5F60115420593E919004181A9BFFA
:1054140079712AC6680822D406D62EC432842ECEC8
:10542400EFE01FBB634C05029387C1D40A053387A1
:10543400A700184319C323000700324719C32300E8
:105444000700AA9798C3014511C401466C002800BF
:10545400EFF06F82B2502254456182802D45DDBF4A
:10546400130101D823263127232E1126232C81262C
:10547400232A912623282127232441272322512725
:1054840023206127232E71252EC6A5491DC9137A11
:10549400F6032A8432896C0852866800EFE0BFFD67
:1054A400AA8909EDF244B2459C08DCC4081026D050
:1054B4005D3615CD1379C901631109062320040053
:1054C400AA898320C1270324812783244127032910
:1054D4000127032A8126832A4126032B0126832BB5
:1054E400C1254E858329C1261301012882808307A3
:1054F400B10463CF07181377C901834761026312AC
:10550400071413F707016317071813792900630DAC
:105514000908858BD1CB1D4555B79147E310F5FAA2
:105524000810EFF03F84136A8A0049F993778A00E0
:105534007259BDCBEFE01FA1AA852AC41305E90067
:10554400EFE07FA2A24513056901EFE0DFA103C5E7
:105554000400CA85EFF0EF9F93070002A305F9004A
:10556400AA8A0146CA852685EFE0FFB58547230E42
:105574000900A30E0900230F0900A30F0900A3814A
:10558400F40063830A020146D685081003A90403C4
:10559400EFF06FAC05F5CA852685FD1AEFE03FB53F
:1055A40023A85401E31C05F093778A0099C3136A76
:1055B4000A049C587259930A84021CD0232224039F
:1055C40003C50400CA85EFF0CF9808C41305C901C8
:1055D400EFE09F9783D7640048C42308440104C0C4
:1055E4002312F400A3080400232E0400232A040039
:1055F4001306002081455685137A0A02EFE07F984E
:10560400E3010AEC0329C400E30D09EA03DAA40068
:10561400232A24010C44260A637E2A03054BFD5BDE
:10562400084033094941EFF04F95AA85637EAB04E6
:10563400630E7505E3662AFF01450CCCE31005E80B
:1056440019A8C58BE39907EC13794900E30009EE27
:105654002145ADB50CCC9377F91FE38407E6268585
:10566400EFE01F93AA870945E38A07E413569900DC
:105674003E9650CC03C514008546D685EFE07F895D
:10568400E30105E405451DBD094545BF054575B75D
:1056940019452DB511451DB51D71A2CCA6CACAC8A0
:1056A400D2C4D6C286CECEC6DAC05EDE62DC66DA8C
:1056B4006AD86ED62E8A23A006006C082A84328902
:1056C400B68AEFE0DF94AA8429ED83441401B1E89B
:1056D400834704019D44858BA9C744445C489D8C41
:1056E40063739900CA84930B8402130CF01F854CD6
:1056F4007D5D85C858489377F71F639A0710724BEE
:1057040093569700835DAB00FD1DB3FDDD006397E9
:105714000D0405EB084463EBAC028947A308F400CD
:105724008944F64066444649B649264A964A064B99
:10573400F25B625CD25C425DB25D2685D644256133
:1057440082800C4C0840EFF04F83F1B76317A5013A
:105754008547A308F4008544E9B708CC0C4C5A8566
:10576400EFE01F835DD9B389AD0063729C060357D4
:10577400AB0013D99400B3862D016374D7003309A9
:10578400B74103451B00CA864E86D285EFE06FF809
:1057940061F18307040163DF0700484C3305354199
:1057A400637A250126051306002093058402529589
:1057B400EFE0DF8F260983A70A00B38424414A9AC5
:1057C400CA9723A0FA005C48CA975CC81DB7504C1E
:1057D400630D36030307040103451B00930584028C
:1057E400635E070085462EC6EFE0CFF335F103472D
:1057F4000401B2451377F7072308E40003451B00AF
:1058040085464E86EFE0EFF021F5232E34014C4817
:105814009307002093F5F51F3389B74063F3240100
:1058240026894A86DE955285EFE05F8869B71D7147
:10583400A2CCCAC8CEC6D6C2DAC086CEA6CAD2C444
:105844005EDE62DC66DA6AD86ED6AE8A23A0060013
:105854006C082A843289368BEFE06FFBAA8935ED18
:1058640083491401639B090683470401898B638D73
:1058740007185C48338727016374F70013C9F7FFDF
:10588400130C8402930CF01F054DFD5D63010904A4
:105894005C4813F7F71F63130714F24413D79700F8
:1058A40003DAA4007D1A337AEA0063130A0699EB3B
:1058B4000844814509C96312A5058947A308F40072
:1058C400894921A80C4C2285EFF00F826DF583479E
:1058D400040193E707042308F400F6406644D64421
:1058E4004649264A964A064BF25B625CD25C425DAC
:1058F400B25D4E85B649256182806317B50185473F
:10590400A308F4008549D1BF1C4408CC91E308C422
:105914008307040163D10702504C03C51400854674
:1059240093058402EFE00FE079F98347040193F7CC
:10593400F7072308F4000C4C2685EFE06FE535DD0E
:105944003306AA0063FA2C0783D7A400935B99005B
:1059540033077A0163F4E700B38B474103C51400AE
:10596400DE86D68532C6EFE0EFDB51F94C4C324689
:10597400918D63F07503A60513060020D6951305D3
:105984008402EFE0AFF28347040193F7F70723089B
:10599400F40093949B0083270B0033099940A69A43
:1059A400A6972320FB005C48BE945C4444C863F380
:1059B4009700A6875CC4D9BD584C5C48630FC700E8
:1059C400584463FCE70003C514008546930584022C
:1059D40032C6EFE00FD432461DF150CC484893074D
:1059E40000201375F51FB384A74063739900CA841C
:1059F4002686D6856295EFE06FEB8347040193E733
:105A040007F82308F40041BF9D49C1BD79716C00BA
:105A140022D406D626D24AD04ECE2A84EFE02FDFF7
:105A240051E98347040113F7070449C7E207E187F3
:105A3400324963D30702504C034519008546930548
:105A44008402EFE02FCEAA870545ADE78347040122
:105A540093F7F7072308F400EFE0CFCE0C50AA89A0
:105A64004A85EFE0CFE839E5445083C7B400A68502
:105A740093E70702A385F40010440840EFE0AFE485
:105A84004C441385C401EFE00FCECE851385640129
:105A9400EFE06FCD854723890400A3890400A301A7
:105AA400F9004A85EFE07F928347040193F7F7FBFF
:105AB4002308F400B250225492540259F249456129
:105AC4008280011122CC06CE2A84893701E96C0038
